S00D00007461736B332E7372656331
S11300000C942A000C9434000C9434000C943400A6
S11300100C9434000C9434000C9434000C9434008C
S11300200C9434000C9434000C9434000C9434007C
S11300300C9434000C9434000C9434000C9434006C
S11300400C9434000C9434000C9434000C9434005C
S11300500C94340011241FBECFE5D8E0DEBFCDBF21
S11300600E9436000C9442000C94000081B38E7FF1
S113007081BB81B3806181BB809BFECF82B38061F1
S10B008082BBFACFF894FFCF14
S9030000FC
