S0150000756172745F41746D65676133322E7372656340
S11300000C942A000C9447000C9447000C9447006D
S11300100C9447000C9447000C9447000C94470040
S11300200C9447000C9447000C9447000C94470030
S11300300C9447000C9447000C9447000C94470020
S11300400C9447000C9447000C9447000C94470010
S11300500C94470011241FBECFE5D8E0DEBFCDBF0E
S113006010E0A0E6B0E0E8EDF9E002C005900D92E2
S1130070A437B107D9F720E0A4E7B0E001C01D928E
S1130080AD39B207E1F70E9446010C94EA040C94DE
S1130090000063E088E390E00E949B01000063E0BD
S11300A088E390E00E94A70100C00895CF93C82F71
S11300B061E088E390E00E94A70162E088E390E0B9
S11300C00E94A7018BB38F709C2F907F892B8BBBD1
S11300D00E9449002BB330E1C39FC0011124922F29
S11300E09F70892B8BBB0E94490083EF91E001979D
S11300F0F1F700C00000CF91089581E00E945600FE
S1130100089561E087E390E00E949B0162E087E349
S113011090E00E949B0163E087E390E00E949B01D2
S113012080EF8ABB83ED90E30197F1F700C00000F4
S113013082E00E94560081EE94E00197F1F700C03E
S1130140000088E20E9456008FE00E9456000E9440
S11301507D0086E00E94560080E80E9456000895C3
S1130160019719F480E8860F02C080EC860F0E9484
S113017056000895CF93C82F61E088E390E00E9471
S11301809B0162E088E390E00E94A7018BB38F702B
S11301909C2F907F892B8BBB0E9449002BB330E1AD
S11301A0C39FC0011124922F9F70892B8BBB0E9487
S11301B0490083EF91E00197F1F700C00000CF916F
S11301C008950F931F93CF93DF93FC01C0E0D0E019
S11301D028C021962FEB84ED91E02150804090407F
S11301E0E1F700C000008F010F5F1F4F80810E9464
S11301F0BA00C031D10539F460E070E082E090E0EB
S11302000E94B0000DC0C032D10551F40E947D009F
S113021060E070E081E090E00E94B000C0E0D0E0D7
S1130220F80180818111D5CFDF91CF911F910F917A
S113023008950F931F93CF93DF93CDB7DEB72A971B
S11302400FB6F894DEBF0FBECDBF9F938F9380E6A9
S113025090E09F938F938E010F5F1F4F1F930F9317
S11302600E940002C8010E94E1000F900F900F90BD
S11302700F900F900F902A960FB6F894DEBF0FBE22
S1130280CDBFDF91CF911F910F9108950E948100FE
S11302902FEF85EA9EE0215080409040E1F700C0B6
S11302A000000E947D002FEF80E792E02150804003
S11302B09040E1F700C000000E94C00183E690E096
S11302C00E94E1002FEF80E792E0215080409040AF
S11302D0E1F700C000000E947D0060E070E081E072
S11302E090E00E94B0008091740090E00E94190197
S11302F02FEF82E597E0215080409040E1F700C065
S11303000000809174008F5F8093740085E790E013
S11303100E94E301882309F360E070E082E090E04A
S11303200E94B00085E790E00E94F30185E790E029
S11303300E94E100D2CFFC01408121E030E002C004
S1130340220F331F6A95E2F7242B20830895FC01C2
S1130350908121E030E002C0220F331F6A95E2F75A
S11303602095292320830895FC01208130E002C0D8
S1130370359527956A95E2F781E020FF80E008959E
S113038083E389B961E08BE290E00E94A70166E013
S113039080E490E00E94A70163E08AE290E00E947A
S11303A09B0164E08AE290E00E949B010895CF9350
S11303B0C82F65E08BE290E00E94B4018823C9F362
S11303C0CCB9CF910895CF93DF93EC0167E08BE232
S11303D090E00E94B401882319F08CB1888381E0F5
S11303E0DF91CF910895CF93DF93EC0103C00E9476
S11303F0D701219688818111FACFDF91CF91089599
S1130400AEE0B0E0E6E0F2E00C94C1040D891E8990
S113041086E08C831A8309838FEF9FE79E838D8305
S1130420AE01475E5F4F6F89788DCE0101960E94C1
S11304302202EF81F885E00FF11F10822E96E4E08E
S11304400C94DD04ABE0B0E0E8E2F2E00C94B30419
S11304506C017B018A01FC0117821682838181FF72
S1130460CCC1CE0101963C01F6019381F70193FDC5
S1130470859193FF81917F01882309F4BAC1853264
S113048039F493FD859193FF81917F01853229F49D
S1130490B60190E00E941904E7CF912C212C312C55
S11304A0FFE1F315D8F08B3279F038F4803279F02B
S11304B08332A1F4232D20611DC08D3261F080337D
S11304C069F4232D216016C0832D8260382EE32D1C
S11304D0E4603E2E2AC0F32DF8601DC037FC2DC009
S11304E020ED280F2A3040F08E32B9F436FC81C159
S11304F0232D2064322E19C036FE06C08AE0989E51
S1130500200D1124922E11C0EAE02E9E200D1124FC
S1130510222EF32DF0623F2E08C08C3621F4832D59
S11305208068382E02C0883641F4F70193FD859126
S113053093FF81917F018111B3CF982F9F7D9554B3
S1130540933028F40C5F1F4F9FE399830DC08336CB
S113055031F0833771F0833509F059C021C0F801B7
S1130560808189830E5F1F4F88248394912C5301CB
S113057013C02801F2E04F0E511CF801A080B18095
S113058036FE03C0692D70E002C06FEF7FEFC50136
S11305900E940E044C018201F32DFF773F2E16C0FA
S11305A0280122E0420E511CF801A080B18036FEE1
S11305B003C0692D70E002C06FEF7FEFC5010E9498
S11305C003044C01F32DF0683F2E820133FC1BC061
S11305D0822D90E088169906B0F4B60180E290E08E
S11305E00E9419042A94F4CFF50137FC859137FE53
S11305F081915F01B60190E00E94190421102A94B0
S113060021E0821A91088114910471F7E8C08436BC
S113061011F0893641F5F80137FE07C06081718118
S1130620828193810C5F1F4F08C060817181072E06
S1130630000C880B990B0E5F1F4FF32DFF763F2E96
S113064097FF09C090958095709561957F4F8F4F66
S11306509F4FF0683F2E2AE030E0A3010E9455042A
S1130660882E861845C0853731F4232D2F7EB22E6F
S11306702AE030E025C0932D997FB92E8F36C1F042
S113068018F4883579F0B5C0803719F0883721F02F
S1130690B0C0E92FE061BE2EB4FE0DC0FB2DF460A6
S11306A0BF2E09C034FE0AC0292F2660B22E06C010
S11306B028E030E005C020E130E002C020E132E073
S11306C0F801B7FE07C060817181828193810C5F5C
S11306D01F4F06C06081718180E090E00E5F1F4F64
S11306E0A3010E945504882E8618FB2DFF773F2E08
S11306F036FE0DC0232D2E7FA22E891458F434FE0D
S11307000BC032FC09C0832D8E7EA82E05C0B82CE8
S1130710A32C03C0B82C01C0B92CA4FE0FC0FE0149
S1130720E80DF11D8081803321F49A2D997EA92E44
S113073009C0A2FE06C0B394B39404C08A2D86787F
S113074009F0B394A3FC11C0A0FE06C0B21488F44F
S1130750280C922C9B180EC0B21460F4B60180E2EF
S113076090E00E941904B394F7CFB21418F42B1834
S113077002C0982C212CA4FE10C0B60180E390E0A6
S11307800E941904A2FE17C0A1FC03C088E790E0F0
S113079002C088E590E0B6010CC08A2D867859F035
S11307A0A1FE02C08BE201C080E2A7FC8DE2B6018B
S11307B090E00E941904891438F4B60180E390E0B3
S11307C00E9419049A94F7CF8A94F301E80DF11D5D
S11307D08081B60190E00E9419048110F5CF222097
S11307E009F442CEB60180E290E00E9419042A94F2
S11307F0F6CFF6018681978102C08FEF9FEF2B968B
S1130800E2E10C94CF04FC010590615070400110AA
S1130810D8F7809590958E0F9F1F0895FC01615025
S1130820704001900110D8F7809590958E0F9F1F0E
S113083008950F931F93CF93DF93FB01238121FD31
S113084003C08FEF9FEF2CC022FF16C04681578153
S1130850248135814217530744F4A081B1819D015D
S11308602F5F3F4F318320838C93268137812F5F05
S11308703F4F3783268314C08B01EC01FB010084B6
S1130880F185E02D0995892BE1F6D80116968D9115
S11308909C911797019617969C938E931697CE0169
S11308A0DF91CF911F910F910895FA01AA27283063
S11308B051F1203181F1E8946F936E7F6E5F7F4F29
S11308C08F4F9F4FAF4FB1E03ED0B4E03CD0670FA5
S11308D0781F891F9A1FA11D680F791F8A1F911DF8
S11308E0A11D6A0F711D811D911DA11D20D009F448
S11308F068943F912AE0269F11243019305D31938A
S1130900DEF6CF010895462F4770405D4193B3E072
S11309100FD0C9F7F6CF462F4F70405D4A3318F019
S1130920495D31FD4052419302D0A9F7EACFB4E0CA
S1130930A6959795879577956795BA95C9F7009782
S11309406105710508959B01AC010A2E0694579523
S1130950479537952795BA95C9F7620F731F841F7A
S1130960951FA01D08952F923F924F925F926F9210
S11309707F928F929F92AF92BF92CF92DF92EF922B
S1130980FF920F931F93CF93DF93CDB7DEB7CA1BAC
S1130990DB0B0FB6F894DEBF0FBECDBF09942A88D7
S11309A0398848885F846E847D848C849B84AA847F
S11309B0B984C884DF80EE80FD800C811B81AA810C
S11309C0B981CE0FD11D0FB6F894DEBF0FBECDBFD7
S10B09D0ED010895F894FFCF36
S11309D825640055415254204953204C4F41444901
S10709E84E47000072
S9030000FC
