S01100005461736B5F636F64652E7372656386
S11300000C942A000C9434000C9434000C943400A6
S11300100C9434000C9434000C9434000C9434008C
S11300200C9434000C9434000C9434000C9434007C
S11300300C9434000C9434000C9434000C9434006C
S11300400C9434000C9434000C9434000C9434005C
S11300500C94340011241FBECFE5D8E0DEBFCDBF21
S11300600E9436000C9442000C94000081B38E7FF1
S113007081BB81B3806881BB809BFECF82B38068E3
S10B008082BBFACFF894FFCF14
S9030000FC
