S0150000756172745F41746D65676133322E7372656340
S11300000C942A000C9447000C9447000C9447006D
S11300100C9447000C9447000C9447000C94470040
S11300200C9447000C9447000C9447000C94470030
S11300300C9447000C9447000C9447000C94470020
S11300400C9447000C9447000C9447000C94470010
S11300500C94470011241FBECFE5D8E0DEBFCDBF0E
S113006010E0A0E6B0E0E2E3F3E002C005900D92F8
S1130070A037B107D9F720E0A0E7B0E001C01D9296
S1130080A137B207E1F70E9419010C9497010C946F
S1130090000063E088E390E00E944601000063E012
S11300A088E390E00E94520100C00895CF93C82FC6
S11300B061E088E390E00E94520162E088E390E00E
S11300C00E9452018BB38F709C2F907F892B8BBB26
S11300D00E9449002BB330E1C39FC0011124922F29
S11300E09F70892B8BBB0E94490083EF91E001979D
S11300F0F1F700C00000CF91089581E00E945600FE
S1130100089561E087E390E00E94460162E087E39E
S113011090E00E94460163E087E390E00E9446017C
S113012080EF8ABB83ED90E30197F1F700C00000F4
S113013082E00E94560081EE94E00197F1F700C03E
S1130140000088E20E9456008FE00E9456000E9440
S11301507D0086E00E94560080E80E9456000895C3
S1130160019719F480E8860F02C080EC860F0E9484
S113017056000895CF93C82F61E088E390E00E9471
S1130180460162E088E390E00E9452018BB38F70D5
S11301909C2F907F892B8BBB0E9449002BB330E1AD
S11301A0C39FC0011124922F9F70892B8BBB0E9487
S11301B0490083EF91E00197F1F700C00000CF916F
S11301C008950F931F93CF93DF93FC01C0E0D0E019
S11301D028C021962FEB84ED91E02150804090407F
S11301E0E1F700C000008F010F5F1F4F80810E9464
S11301F0BA00C031D10539F460E070E082E090E0EB
S11302000E94B0000DC0C032D10551F40E947D009F
S113021060E070E081E090E00E94B000C0E0D0E0D7
S1130220F80180818111D5CFDF91CF911F910F917A
S113023008950E9481002FEF85EA9EE021508040BE
S11302409040E1F700C000000E947D002FEF80E79E
S113025092E0215080409040E1F700C000000E94ED
S11302606B0180E690E00E94E1000E948E01809381
S113027070000E94820160E070E082E090E00E94E1
S1130280B000809170000E94BA00EFCFFC01408161
S113029021E030E002C0220F331F6A95E2F7242BDD
S11302A020830895FC01908121E030E002C0220FF8
S11302B0331F6A95E2F72095292320830895FC01D2
S11302C0208130E002C0359527956A95E2F781E0F8
S11302D020FF80E0089583E389B961E08BE290E038
S11302E00E94520166E080E490E00E94520163E0C3
S11302F08AE290E00E94460164E08AE290E00E9473
S113030046010895CF93C82F65E08BE290E00E94E8
S11303105F018823C9F3CCB9CF91089567E08BE2DC
S113032090E00E945F018823C9F38CB10895F8948A
S1050330FFCFF9
S113033255415254204953204C4F4144494E4700A1
S9030000FC
