:100000000C942A000C943F000C943F000C943F0089
:100010000C943F000C943F000C943F000C943F0064
:100020000C943F000C943F000C943F000C943F0054
:100030000C943F000C943F000C943F000C943F0044
:100040000C943F000C943F000C943F000C943F0034
:100050000C943F0011241FBECFE5D8E0DEBFCDBF1A
:1000600010E0A0E6B0E0EAEBF2E002C005900D92ED
:10007000A038B107D9F70E9436010C945B010C94AB
:100080000000FC01408121E030E002C0220F331F5C
:100090006A95E2F7242B20830895FC01408121E03A
:1000A00030E002C0220F331F6A95E2F7242B208331
:1000B0000895FC01908121E030E002C0220F331F3F
:1000C0006A95E2F7209529232083089563E088E369
:1000D00090E00E944D00000063E088E390E00E9401
:1000E000590000C00895CF93C82F61E088E390E0E5
:1000F0000E94590062E088E390E00E9459008BB3AF
:100100008F709C2F907F892B8BBB0E9466002BB336
:1001100030E1C39FC0011124922F9F70892B8BBBAC
:100120000E94660083EF91E00197F1F700C00000A4
:10013000CF91089581E00E947300089561E087E304
:1001400090E00E94410062E087E390E00E9441005D
:1001500063E087E390E00E94410080EF8ABB83ED7B
:1001600090E30197F1F700C0000082E00E94730065
:1001700081EE94E00197F1F700C0000088E20E9450
:1001800073008FE00E9473000E949A0086E00E9434
:10019000730080E80E9473000895019719F480E8C5
:1001A000860F02C080EC860F0E9473000895CF93E3
:1001B000C82F61E088E390E00E944D0062E088E390
:1001C00090E00E9459008BB38F709C2F907F892BF9
:1001D0008BBB0E9466002BB330E1C39FC00111248A
:1001E000922F9F70892B8BBB0E94660083EF91E05A
:1001F0000197F1F700C00000CF9108950F931F936E
:10020000CF93DF93FC01C0E0D0E028C021962FEB14
:1002100084ED91E0215080409040E1F700C0000063
:100220008F010F5F1F4F80810E94D700C031D10521
:1002300039F460E070E082E090E00E94CD000DC0F3
:10024000C032D10551F40E949A0060E070E081E074
:1002500090E00E94CD00C0E0D0E0F80180818111E3
:10026000D5CFDF91CF911F910F9108950E949E00ED
:100270002FEF85EA9EE0215080409040E1F700C0DA
:1002800000000E949A002FEF80E792E0215080400A
:100290009040E1F700C0000080E690E00E94FE0080
:1002A00060E070E082E090E00E94CD008FE690E098
:0A02B0000E94FE00FFCFF894FFCF7C
:1002BA004C6561726E20496E204465707468004115
:1002CA00544D454741333220445249564552530012
:00000001FF
