:100000000C942A000C943F000C943F000C943F0089
:100010000C943F000C943F000C943F000C943F0064
:100020000C943F000C943F000C943F000C943F0054
:100030000C943F000C943F000C943F000C943F0044
:100040000C943F000C943F000C943F000C943F0034
:100050000C943F0011241FBECFE5D8E0DEBFCDBF1A
:1000600010E0A0E6B0E0E0EDF3E002C005900D92F4
:10007000A238B107D9F70E94C2010C94E6010C9492
:10008000000081B3807F81BB81B3806F81BB8FEF24
:1000900082BB08950F931F93CF93DF9340E050E00E
:1000A0009DC032B3E0E6F0E081E090E08C0100809A
:1000B00002C0000F111F0A94E2F7EC01028002C097
:1000C000CC0FDD1F0A94E2F7DC01048002C0AA0F06
:1000D000BB1F0A94E2F7BC01068002C0660F771FBF
:1000E0000A94E2F72C2F202B2A2B262B232B22BB22
:1000F00022B3FA01EE0FFF1FE05AFF4F008002C04B
:10010000880F991F0A94E2F78095822382BB60E0F2
:1001100070E05EC080B3FB01EE0FFF1FE859FF4F98
:10012000208190E0022E02C0959587950A94E2F70F
:1001300080FD4CC080B390E0022E02C0959587955B
:100140000A94E2F780FFF6CF41305105C9F024F45C
:100150004115510541F03AC042305105F1F04330AC
:10016000510541F133C061157105F1F1613071053F
:10017000E9F162307105E1F16330710539F53AC09A
:1001800061157105C9F161307105C1F16230710508
:10019000B9F163307105D1F435C061157105A1F174
:1001A0006130710599F16230710591F1633071052B
:1001B00069F430C06115710579F16130710571F133
:1001C0006230710569F16330710561F16F5F7F4FD6
:1001D000643071050CF49ECF4F5F5F4F4430510582
:1001E0000CF45FCF81E41FC087E31DC084E31BC014
:1001F00081E319C081E217C088E315C085E313C00D
:1002000082E311C080E30FC089E30DC086E30BC019
:1002100083E309C08DE307C08FE205C08AE203C013
:100220008DE201C08BE2DF91CF911F910F91089574
:1002300088B3886088BB83ED90E30197F1F700C035
:10024000000088B3877F88BB08951ABA88B384609A
:1002500088BB88B38D7F88BB0E9418018FEF8ABB53
:1002600088B38B7F88BB0895CF93C82F0E94250148
:10027000CBBB88B3897F88BB89EF90E00197F1F70A
:1002800000C000000E941801CF91089581309105AF
:1002900049F4862F972F409778F480E8860F0E94C4
:1002A00034010895029741F4862F972F409720F448
:1002B00080EC860F0E943401089581E00E94340191
:1002C00083EF91E00197F1F700C00000089587E8FF
:1002D00093E10197F1F700C000000E94250187B368
:1002E0008E6087BB88B3817F88BB8FEF8ABB0E94FB
:1002F0005D0188E30E94340186E00E94340180E8B9
:100300000E9434018FE00E9434010895CF93C82FDA
:100310000E94250188B38B7F88BB88B3826088BB2D
:10032000CBBB0E941801CF9108950F931F93CF93D9
:10033000DF938C01C0E0D0E01CC021960F5F1F4FFF
:100340000E948601C031D10539F460E070E082E09E
:1003500090E00E9446010DC0C032D10551F40E94C8
:100360005D0160E070E081E090E00E944601C0E045
:10037000D0E0F80180818111E0CFDF91CF911F9112
:100380000F9108950E9467010E94410080E790E06C
:100390000E9495012FE38DE093E021508040904032
:1003A000E1F700C0000060E070E082E090E00E94B1
:1003B00046010E944A00813219F08134D1F303C012
:1003C0000E945D01F6CF0E948601F3CFF894FFCF23
:1003D0000400050006000700000001000200030001
:1003E000544845592043414C4C204D45204F5553CE
:0203F00000000B
:00000001FF
