:100000000C942A000C946B000C948A000C94A900A8
:100010000C9434000C9434000C9434000C94340090
:100020000C9434000C9434000C9434000C94340080
:100030000C9434000C9434000C9434000C94340070
:100040000C9434000C9434000C9434000C94340060
:100050000C94340011241FBECFE5D8E0DEBFCDBF25
:100060000E944C000C94C8000C94000085B781607D
:1000700085BF8BB780648BBF85B7846085BF85B72C
:10008000886085BF8BB780688BBF84B78F7B84BF48
:100090008BB780628BBF089581B3806281BB81B3CF
:1000A000806481BB81B3806881BB81B38B7F81BB5E
:1000B00081B3877F81BB87B38B7F87BB0E9436006C
:1000C000789482B38F7D82BB82B38F7B82BB82B3F5
:1000D0008F7782BBF6CF1F920F920FB60F9211242B
:1000E0002F938F939F9382B3806282BB2FE38DE027
:1000F00093E0215080409040E1F700C0000082B3BF
:100100008F7D82BB9F918F912F910F900FBE0F908B
:100110001F9018951F920F920FB60F9211242F93D4
:100120008F939F9382B3806482BB2FE38DE093E033
:10013000215080409040E1F700C0000082B38F7BE7
:1001400082BB9F918F912F910F900FBE0F901F90A8
:1001500018951F920F920FB60F9211242F938F9321
:100160009F9382B3806882BB2FE38DE093E02150A0
:1001700080409040E1F700C0000082B38F7782BBDF
:100180009F918F912F910F900FBE0F901F901895F8
:04019000F894FFCF11
:00000001FF
