S01200005461736B325F636F64652E7372656353
S11300000C942A000C943F000C943F000C943F0085
S11300100C943F000C943F000C943F000C943F0060
S11300200C943F000C943F000C943F000C943F0050
S11300300C943F000C943F000C943F000C943F0040
S11300400C943F000C943F000C943F000C943F0030
S11300500C943F0011241FBECFE5D8E0DEBFCDBF16
S113006010E0A0E6B0E0ECE3F1E002C005900D92F0
S1130070A236B107D9F70E9441000C949C000C945D
S1130080000080EE81BB81B38E7F81BB12BA809B5E
S1130090FECF2FE788E391E0215080409040E1F7C4
S11300A000C00000809B3EC0809160009091610080
S11300B0059740F12FE788E391E02150804090407C
S11300C0E1F700C0000022B381E090E000906000FE
S11300D002C0880F991F0A94E2F7822B82BB809199
S11300E0600090916100019790936100809360009B
S11300F02FEF82E597E0215080409040E1F700C067
S1130100000007C012BA87E090E0909361008093EA
S113011060002FEF82E597E0215080409040E1F7A6
S113012000C000002FEF82E597E02150804090400E
S10F0130E1F700C00000ABCFF894FFCF53
S105013C0700B6
S9030000FC
