S01700004763634170706C69636174696F6E312E737265635B
S11300000C942A000C9434000C9434000C943400A6
S11300100C9434000C9434000C9434000C9434008C
S11300200C9434000C9434000C9434000C9434007C
S11300300C9434000C9434000C9434000C9434006C
S11300400C9434000C9434000C9434000C9434005C
S11300500C94340011241FBECFE5D8E0DEBFCDBF21
S11300600E9436000C9461000C9400008FEF84BB56
S113007090E024C040E1949F900111242B6025BBA3
S11300802FEF32E547E0215030404040E1F700C017
S1130090000040E1849F90011124276025BB2FEFCD
S11300A032E547E0215030404040E1F700C0000015
S11300B08F5F01C080E08A30E8F29F5F9A30D0F30E
S10900C0D7CFF894FFCF36
S9030000FC
